:020000040800F2
:1000000000000120F5010008450200084502000833
:1000100045020008450200084502000800000000F3
:100020000000000000000000000000004502000881
:1000300045020008000000004502000845020008D3
:100040004502000845020008450200084502000874
:100050004502000845020008450200084502000864
:100060004502000845020008450200084502000854
:100070004502000845020008450200084502000844
:100080004502000845020008450200084502000834
:100090004502000845020008450200084502000824
:1000A0004502000845020008450200084502000814
:1000B0004502000845020008450200084502000804
:1000C00045020008450200084502000845020008F4
:1000D00045020008450200084502000845020008E4
:1000E00045020008450200084502000845020008D4
:1000F00045020008450200084502000845020008C4
:1001000045020008450200084502000845020008B3
:1001100045020008450200084502000845020008A3
:100120004502000845020008450200084502000893
:100130004502000845020008450200084502000883
:100140004502000845020008450200084502000873
:1001500010B5054C237833B9044B13B10448AFF301
:1001600000800123237010BD00000020000000006B
:100170009002000808B5034B1BB103490348AFF3D5
:10018000008008BD0000000004000020900200086C
:1001900080B483B000AF154B1B68144A43F00403CE
:1001A0001360134B1B68124A23F470031360104B47
:1001B0001B680F4A43F4001313600D4B1B680C4A75
:1001C00043F40053136000237B6002E07B6801333B
:1001D0007B607B6841F287329342F7DD044B1B68FA
:1001E000034A23F400531360E7E700BF18100240EE
:1001F000180801400D488546AFF300800C480D49B2
:100200000D4A002302E0D458C4500433C4188C4271
:10021000F9D30A4A0A4C002301E013600432A242D7
:10022000FBD300F011F8FFF7B3FFFEE70000012059
:100230000000002000000020B002000800000020A4
:100240001C000020FEE7000070B500250C4E0D4C90
:10025000A41BA410A54209D100F01AF800250A4EEB
:100260000A4CA41BA410A54205D170BD56F8253038
:1002700098470135EEE756F8253098470135F2E703
:10028000A8020008A8020008A8020008AC020008A2
:10029000F8B500BFF8BC08BC9E467047F8B500BF73
:0802A000F8BC08BC9E46704743
:0402A80075010008D4
:0402AC0051010008F4
:04000005080001F5F9
:00000001FF
